:100000000C9435000C945D000C945D000C945D0024
:100010000C945D000C945D000C945D000C945D00EC
:100020000C945D000C945D000C945D000C945D00DC
:100030000C945D000C945D000C945D000C945D00CC
:100040000C946C020C945D000C943A020C94140213
:100050000C945D000C945D000C945D000C945D00AC
:100060000C945D000C945D00740411241FBECFEF4E
:10007000D8E0DEBFCDBF11E0A0E0B1E0EEE0FEE0F1
:1000800002C005900D92A033B107D9F721E0A0E39B
:10009000B1E001C01D92AE3EB207E1F710E0C5E34A
:1000A000D0E004C02197FE010E94FF06C433D107AF
:1000B000C9F70E94B6020C9405070C940000AF9299
:1000C000BF92CF92DF92EF92FF920F931F93CF9345
:1000D000DF936C017B018B01040F151FEB015E01A7
:1000E000AE18BF08C017D10759F06991D601ED913C
:1000F000FC910190F081E02DC6010995892B79F7DB
:10010000C501DF91CF911F910F91FF90EF90DF908C
:10011000CF90BF90AF900895FC01538D448D252F53
:1001200030E0842F90E0821B930B541710F0CF9691
:10013000089501970895FC01918D828D981761F0C3
:10014000A28DAE0FBF2FB11D5D968C91928D9F5FDA
:100150009F73928F90E008958FEF9FEF0895FC01B9
:10016000918D828D981731F0828DE80FF11D858D6C
:1001700090E008958FEF9FEF0895FC01918D228DFF
:10018000892F90E0805C9F4F821B91098F73992784
:10019000089581E591E00E94BD0021E0892B09F4DA
:1001A00020E0822F089580E090E0892B29F00E94C2
:1001B000C90081110C9400000895FC01A48DA80FC2
:1001C000B92FB11DA35ABF4F2C91848D90E0019699
:1001D0008F739927848FA689B7892C93A089B189B9
:1001E0008C91837080648C93938D848D981306C05A
:1001F0000288F389E02D80818F7D80830895EF92BE
:10020000FF920F931F93CF93DF93EC0181E0888FD0
:100210009B8D8C8D98131AC0E889F989808185FFA0
:1002200015C09FB7F894EE89FF896083E889F98942
:1002300080818370806480839FBF81E090E0DF9144
:10024000CF911F910F91FF90EF900895F62E0B8D97
:1002500010E00F5F1F4F0F731127E02E8C8D8E1152
:100260000CC00FB607FCFACFE889F989808185FFB9
:10027000F5CFCE010E94DD00F1CFEB8DEC0FFD2F0D
:10028000F11DE35AFF4FF0829FB7F8940B8FEA8974
:10029000FB8980818062CFCFCF93DF93EC01888D83
:1002A0008823B9F0AA89BB89E889F9898C9185FDF1
:1002B00003C0808186FD0DC00FB607FCF7CF8C917F
:1002C00085FFF2CF808185FFEDCFCE010E94DD005A
:1002D000E9CFDF91CF9108953FB7F8948091350130
:1002E00090913601A0913701B091380126B5A89BB5
:1002F00005C02F3F19F00196A11DB11D3FBFBA2FB8
:10030000A92F982F8827BC01CD01620F711D811D77
:10031000911D42E0660F771F881F991F4A95D1F7FC
:1003200008958F929F92AF92BF92CF92DF92EF92F9
:10033000FF924B015C010E946C016B017C010E94E9
:100340006C016C197D098E099F09683E7340810517
:100350009105A8F321E0821A9108A108B10888EE5E
:10036000C80E83E0D81EE11CF11C81149104A10485
:10037000B10429F7FF90EF90DF90CF90BF90AF903E
:100380009F908F900895FC0101900020E9F731972C
:10039000AF01481B590BBC0181E591E00C945F0053
:1003A0008F929F92AF92BF920F931F93CF93DF9341
:1003B000CDB7DEB7A1970FB6F894DEBF0FBECDBFA5
:1003C00019A2423008F44AE08E010F5D1F4F842EBF
:1003D000912CB12CA12CA50194010E94DD06E62FE1
:1003E000B901CA01EA30F4F4E05DD801EE938D0161
:1003F000232B242B252B79F790E080E0109719F020
:10040000CD010E94C301A1960FB6F894DEBF0FBEC6
:10041000CDBFDF91CF911F910F91BF90AF909F9073
:100420008F900895E95CE1CF1F920F920FB60F9263
:1004300011242F933F934F935F936F937F938F93E9
:100440009F93AF93BF93EF93FF9381E591E00E9459
:10045000DD00FF91EF91BF91AF919F918F917F91BF
:100460006F915F914F913F912F910F900FBE0F9021
:100470001F9018951F920F920FB60F9211242F9371
:100480008F939F93EF93FF93E0916101F09162014D
:100490008081E0916701F091680182FD1BC090812D
:1004A00080916A018F5F8F7320916B01821741F0F9
:1004B000E0916A01F0E0EF5AFE4F958F80936A0158
:1004C000FF91EF919F918F912F910F900FBE0F9001
:1004D0001F9018958081F4CF1F920F920FB60F9244
:1004E00011242F933F938F939F93AF93BF9380914A
:1004F000310190913201A0913301B09134013091DA
:10050000300123E0230F2D3758F50196A11DB11DB1
:10051000209330018093310190933201A0933301F5
:10052000B09334018091350190913601A09137014B
:10053000B09138010196A11DB11D809335019093B2
:100540003601A0933701B0933801BF91AF919F91CD
:100550008F913F912F910F900FBE0F901F90189584
:1005600026E8230F0296A11DB11DD2CF789484B541
:10057000826084BD84B5816084BD85B5826085BD9F
:1005800085B5816085BD80916E00816080936E002D
:10059000109281008091810082608093810080911F
:1005A00081008160809381008091800081608093D0
:1005B00080008091B10084608093B1008091B00090
:1005C00081608093B00080917A00846080937A008B
:1005D00080917A00826080937A0080917A008160B5
:1005E00080937A0080917A00806880937A001092DC
:1005F000C100E0916101F091620182E08083E091AD
:100600005D01F0915E011082E0915F01F091600167
:100610008FEC808310926901E0916501F091660191
:1006200086E08083E0916301F091640180818061C4
:100630008083E0916301F091640180818860808310
:10064000E0916301F0916401808180688083E09192
:100650006301F091640180818F7D808382E191E06C
:100660000E94C30188E191E00E94C3019FE4292E0A
:1006700091E0392E0DE411E0C0E0D0E08DE3E82EEA
:1006800081E0F82E80E480937C0080917A00806481
:1006900080937A0080917A0086FDFCCF909178005B
:1006A00080917900892798278927F7018193919371
:1006B0007F016AE070E080E090E00E949101F1E546
:1006C000EF16F1E0FF06F1F6EDE3F1E0DF018081E6
:1006D000918112962D913C9113972817390734F484
:1006E0003183208313969C938E93129712962A1629
:1006F0003B0669F7329681E0EF34F80739F7E1E419
:10070000F1E060E070E0CB01C190D1900D2C000CC5
:10071000EE08FF086C0D7D1D8E1D9F1D0E171F0717
:1007200099F76093390170933A0180933B0190935C
:100730003C010E94B40520E030E040EA50E40E9411
:100740006B0620E030E040E85AE30E946B0620E0B0
:1007500030E040EC50E40E94130520E030E040E639
:1007600050E40E946B066B017C014B015C018BE144
:1007700091E00E94C301A7019601C701B6010E9442
:10078000D8068823E9F081E291E00E94C3018DE25E
:1007900091E00E94C30188E191E00E94C30160E200
:1007A00073E080E090E00E949101209709F466CF09
:1007B0000E94C900882309F461CF0E9400005ECF27
:1007C00026013701E89477F82FEF3FEF4FE75FE717
:1007D000C301B2010E94D80681110DC02FEF3FEF77
:1007E0004FE75FE7C301B2010E940E0518161CF423
:1007F00085E291E0CACF2FEF3FEF4FE75FE4C701FB
:10080000B6010E94660618161CF489E291E0BDCF7D
:100810002FEF3FEF4FE75FECC701B6010E940E05D7
:1008200087FDF3CF20E030E0A901C701B6010E94A7
:100830000E0587FF0BC06DE281E591E00E94FF008D
:1008400046015701B7FAB094B7F8B0942AE037EDF3
:1008500043EA5BE3C501B4010E94A2044B015C01C1
:100860000E9485056B017C010E94B4059B01AC01CF
:10087000C501B4010E94A1044B015C014AE0C7011B
:10088000B6010E94D0016EE281E591E00E94FF0076
:1008900020E030E040E251E4C501B4010E946B0663
:1008A0004B015C010E9485056B01F12CE12C4AE0B3
:1008B000C701B6010E94D001C701B6010E94B4056C
:1008C0009B01AC01C501B4010E94A10420E030E00D
:1008D00040E251E40E946B060E94850590E080E0B2
:1008E0004AE00E94D00153CFE1E5F1E01382128289
:1008F00088EE93E0A0E0B0E084839583A683B7837D
:1009000084E091E09183808385EC90E095878487F3
:1009100084EC90E09787868780EC90E0918B808BC9
:1009200081EC90E0938B828B82EC90E0958B848BB2
:1009300086EC90E0978B868B118E128E138E148E20
:1009400008955058BB27AA270E94B9040C942C067E
:100950000E941E0638F00E94250620F039F49F3FC1
:1009600019F426F40C941B060EF4E095E7FB0C94A6
:100970001506E92F0E943D0658F3BA176207730760
:100980008407950720F079F4A6F50C945F060EF421
:10099000E0950B2EBA2FA02D0B01B90190010C018F
:1009A000CA01A0011124FF27591B99F0593F50F4A7
:1009B000503E68F11A16F040A22F232F342F4427FF
:1009C000585FF3CF469537952795A795F0405395F7
:1009D000C9F77EF41F16BA0B620B730B840BBAF0C7
:1009E0009150A1F0FF0FBB1F661F771F881FC2F732
:1009F0000EC0BA0F621F731F841F48F48795779546
:100A00006795B795F7959E3F08F0B0CF9395880FFF
:100A100008F09927EE0F9795879508950E94F105A4
:100A200008F481E008950E9427050C942C060E948A
:100A3000250658F00E941E0640F029F45F3F29F079
:100A40000C94150651110C9460060C941B060E9420
:100A50003D0668F39923B1F3552391F3951B550B8C
:100A6000BB27AA2762177307840738F09F5F5F4F81
:100A7000220F331F441FAA1FA9F335D00E2E3AF0C0
:100A8000E0E832D091505040E695001CCAF72BD0D8
:100A9000FE2F29D0660F771F881FBB1F2617370729
:100AA0004807AB07B0E809F0BB0B802DBF01FF275B
:100AB00093585F4F3AF09E3F510578F00C9415061D
:100AC0000C9460065F3FE4F3983ED4F386957795E7
:100AD0006795B795F7959F5FC9F7880F911D969514
:100AE000879597F90895E1E0660F771F881FBB1F70
:100AF000621773078407BA0720F0621B730B840B1D
:100B0000BA0BEE1F88F7E09508950E94450688F01D
:100B10009F5798F0B92F9927B751B0F0E1F0660FC1
:100B2000771F881F991F1AF0BA95C9F714C0B13002
:100B300091F00E945F06B1E008950C945F06672F64
:100B4000782F8827B85F39F0B93FCCF38695779531
:100B50006795B395D9F73EF490958095709561951A
:100B60007F4F8F4F9F4F0895E89409C097FB3EF445
:100B700090958095709561957F4F8F4F9F4F9923EA
:100B8000A9F0F92F96E9BB279395F6958795779568
:100B90006795B795F111F8CFFAF4BB0F11F460FF28
:100BA0001BC06F5F7F4F8F4F9F4F16C0882311F080
:100BB00096E911C0772321F09EE8872F762F05C094
:100BC000662371F096E8862F70E060E02AF09A952F
:100BD000660F771F881FDAF7880F9695879597F924
:100BE0000895990F0008550FAA0BE0E8FEEF1616BE
:100BF0001706E807F907C0F012161306E407F50711
:100C000098F0621B730B840B950B39F40A2661F084
:100C1000232B242B252B21F408950A2609F4A14027
:100C2000A6958FEF811D811D089597F99F6780E834
:100C300070E060E008959FEF80EC089500240A942E
:100C40001616170618060906089500240A941216A7
:100C50001306140605060895092E0394000C11F4DA
:100C6000882352F0BB0F40F4BF2B11F460FF04C087
:100C70006F5F7F4F8F4F9F4F089557FD9058440FE0
:100C8000551F59F05F3F71F04795880F97FB991FEB
:100C900061F09F3F79F087950895121613061406A8
:100CA000551FF2CF4695F1DF08C016161706180635
:100CB000991FF1CF86957105610508940895E89410
:100CC000BB2766277727CB0197F908950E94F10586
:100CD00008F48FEF08950E947E060C942C060E9463
:100CE0001E0638F00E94250620F0952311F00C9482
:100CF00015060C941B0611240C9460060E943D06F8
:100D000070F3959FC1F3950F50E0551F629FF0015E
:100D1000729FBB27F00DB11D639FAA27F00DB11D77
:100D2000AA1F649F6627B00DA11D661F829F222700
:100D3000B00DA11D621F739FB00DA11D621F839F87
:100D4000A00D611D221F749F3327A00D611D231F5D
:100D5000849F600D211D822F762F6A2F11249F57AB
:100D600050409AF0F1F088234AF0EE0FFF1FBB1FAE
:100D7000661F771F881F91505040A9F79E3F51056D
:100D800080F00C9415060C9460065F3FE4F3983EE7
:100D9000D4F3869577956795B795F795E7959F5F17
:100DA000C1F7FE2B880F911D9695879597F90895A9
:100DB0000E94F105880B990B0895A1E21A2EAA1B37
:100DC000BB1BFD010DC0AA1FBB1FEE1FFF1FA217FB
:100DD000B307E407F50720F0A21BB30BE40BF50BF8
:100DE000661F771F881F991F1A9469F76095709581
:100DF000809590959B01AC01BD01CF010895EE0F48
:0E0E0000FF1F0590F491E02D0994F894FFCFA8
:100E0E0000000000FF005F008C004C01BD009B0045
:100E1E00AF005265616479000D0A00202070683AB7
:100E2E00006E616E00696E66006F766600200000CF
:00000001FF
